{
  "contractName": "CrowdProject",
  "abi": [
    {
      "inputs": [
        {
          "name": "_PID",
          "type": "uint256"
        },
        {
          "name": "_admin",
          "type": "address"
        },
        {
          "name": "_name",
          "type": "string"
        },
        {
          "name": "_createdOn",
          "type": "uint256"
        },
        {
          "name": "_maxContributers",
          "type": "uint256"
        },
        {
          "name": "_discription",
          "type": "string"
        }
      ],
      "payable": false,
      "stateMutability": "nonpayable",
      "type": "constructor"
    },
    {
      "payable": true,
      "stateMutability": "payable",
      "type": "fallback"
    },
    {
      "constant": true,
      "inputs": [],
      "name": "getAdmin",
      "outputs": [
        {
          "name": "",
          "type": "address"
        }
      ],
      "payable": false,
      "stateMutability": "view",
      "type": "function"
    },
    {
      "constant": false,
      "inputs": [],
      "name": "fundProject",
      "outputs": [],
      "payable": true,
      "stateMutability": "payable",
      "type": "function"
    },
    {
      "constant": false,
      "inputs": [
        {
          "name": "_cont",
          "type": "uint8"
        }
      ],
      "name": "joinProject",
      "outputs": [],
      "payable": false,
      "stateMutability": "nonpayable",
      "type": "function"
    }
  ],
  "bytecode": "0x60806040523480156200001157600080fd5b506040516200098038038062000980833981018060405262000037919081019062000304565b85600080018190555084600060010160006101000a81548173ffffffffffffffffffffffffffffffffffffffff021916908373ffffffffffffffffffffffffffffffffffffffff16021790555083600060030190805190602001906200009f929190620001cb565b508060006002019080519060200190620000bb929190620001cb565b5081600060040181905550600160006005018190555060405180604001604052803373ffffffffffffffffffffffffffffffffffffffff168152602001600160038111156200010657fe5b815250600060060160003373ffffffffffffffffffffffffffffffffffffffff1673ffffffffffffffffffffffffffffffffffffffff16815260200190815260200160002060008201518160000160006101000a81548173ffffffffffffffffffffffffffffffffffffffff021916908373ffffffffffffffffffffffffffffffffffffffff16021790555060208201518160000160146101000a81548160ff02191690836003811115620001b757fe5b0217905550905050505050505050620004cf565b828054600181600116156101000203166002900490600052602060002090601f016020900481019282601f106200020e57805160ff19168380011785556200023f565b828001600101855582156200023f579182015b828111156200023e57825182559160200191906001019062000221565b5b5090506200024e919062000252565b5090565b6200027791905b808211156200027357600081600090555060010162000259565b5090565b90565b6000815190506200028b816200049b565b92915050565b600082601f830112620002a357600080fd5b8151620002ba620002b482620003fa565b620003cc565b91508082526020830160208301858383011115620002d757600080fd5b620002e483828462000465565b50505092915050565b600081519050620002fe81620004b5565b92915050565b60008060008060008060c087890312156200031e57600080fd5b60006200032e89828a01620002ed565b96505060206200034189828a016200027a565b955050604087015167ffffffffffffffff8111156200035f57600080fd5b6200036d89828a0162000291565b94505060606200038089828a01620002ed565b93505060806200039389828a01620002ed565b92505060a087015167ffffffffffffffff811115620003b157600080fd5b620003bf89828a0162000291565b9150509295509295509295565b6000604051905081810181811067ffffffffffffffff82111715620003f057600080fd5b8060405250919050565b600067ffffffffffffffff8211156200041257600080fd5b601f19601f8301169050602081019050919050565b600062000434826200043b565b9050919050565b600073ffffffffffffffffffffffffffffffffffffffff82169050919050565b6000819050919050565b60005b838110156200048557808201518184015260208101905062000468565b8381111562000495576000848401525b50505050565b620004a68162000427565b8114620004b257600080fd5b50565b620004c0816200045b565b8114620004cc57600080fd5b50565b6104a180620004df6000396000f3fe6080604052600436106100345760003560e01c80636e9960c3146100395780638788862514610064578063d63dc6611461008d575b600080fd5b34801561004557600080fd5b5061004e610097565b60405161005b91906103b9565b60405180910390f35b34801561007057600080fd5b5061008b600480360361008691908101906102b5565b6100c3565b005b6100956101fd565b005b60008060010160009054906101000a900473ffffffffffffffffffffffffffffffffffffffff16905090565b6000600501546000600401541161010f576040517f08c379a0000000000000000000000000000000000000000000000000000000008152600401610106906103d4565b60405180910390fd5b60405180604001604052803373ffffffffffffffffffffffffffffffffffffffff16815260200182600381111561014257fe5b815250600060060160003373ffffffffffffffffffffffffffffffffffffffff1673ffffffffffffffffffffffffffffffffffffffff16815260200190815260200160002060008201518160000160006101000a81548173ffffffffffffffffffffffffffffffffffffffff021916908373ffffffffffffffffffffffffffffffffffffffff16021790555060208201518160000160146101000a81548160ff021916908360038111156101f257fe5b021790555090505050565b343373ffffffffffffffffffffffffffffffffffffffff16311015610257576040517f08c379a000000000000000000000000000000000000000000000000000000000815260040161024e906103f4565b60405180910390fd5b3073ffffffffffffffffffffffffffffffffffffffff166108fc349081150290604051600060405180830381858888f1935050505015801561029d573d6000803e3d6000fd5b50565b6000813590506102af81610457565b92915050565b6000602082840312156102c757600080fd5b60006102d5848285016102a0565b91505092915050565b6102e781610425565b82525050565b60006102fa602a83610414565b91507f546869732070726f6a656374206973206e6f7420616363657074206e6577206360008301527f6f6e7472696275746572000000000000000000000000000000000000000000006020830152604082019050919050565b6000610360602e83610414565b91507f5468652073656e742076616c7565206973206c657373207468616e207468652060008301527f73656e6465722062616c616e63650000000000000000000000000000000000006020830152604082019050919050565b60006020820190506103ce60008301846102de565b92915050565b600060208201905081810360008301526103ed816102ed565b9050919050565b6000602082019050818103600083015261040d81610353565b9050919050565b600082825260208201905092915050565b600061043082610437565b9050919050565b600073ffffffffffffffffffffffffffffffffffffffff82169050919050565b6004811061046457600080fd5b5056fea265627a7a7230582079357acc92c7d296e7af4fd490f25fe2a4c70553460e01f8b44a1ed998dc5c5c6c6578706572696d656e74616cf50037",
  "source": "pragma solidity >=0.5.0 <0.6.0;\n/// @title A simulator for crowd sourcing and funding members and projects\n/// @author Fatin Alkinani\n/// @notice You can use this contract for only the most basic simulation\n/// @dev All function calls are currently implemented without side effects\npragma experimental ABIEncoderV2;\nimport \"./CrowdStructure.sol\";\nimport \"./CrowdMember.sol\";\n\n/** @title Crowd Project: used to create a seperated contract for each crowd member want to register and collect team for it\nin the crowd. It is initialized and deployed by the main contract of CrowdProjectFactory\n  */\n contract CrowdProject\n {\n\n//state variables\nCrowdStructure.Project  prj;\n\n/** @notice This constructor for initializing the project state variable called\n  * @dev Creating a new instance of contract by CrowdProjectFactory contract.\n   All the parameters are given by the CrowdProjectFactory contract.\n  * @param _PID : A project Id, given by the CrowdProjectFactory.\n  * @param _admin : .A project admin address.\n  * @param _name : .A project name.\n  * @param _createdOn : .A project date of creation.\n  * @param _maxContributers : .A max number of project required members.\n  * @param _discription : A project describtion.\n  */\nconstructor(uint _PID,  address _admin, string memory _name, uint256 _createdOn, uint256 _maxContributers, string memory _discription) public\n{\n\n    prj.PID=_PID;\n    prj.admin=_admin;\n    prj.projectName=_name;\n    prj.projectDiscrption=_discription;\n    prj.maxContributers=_maxContributers;\n    prj.noContributers=1;\n    prj.staff[msg.sender]=CrowdStructure.ProjectMember ({adr:msg.sender,cont:CrowdStructure.Contribution.Admin}) ;\n  //  emit LogProject(_admin);\n\n\n}\n// a modifier is used to check if the sender is admin or not\nmodifier isAdmin()\n{\n  require(msg.sender==getAdmin(),\"only admin\");\n  _;\n}\n/// A modifier to check if the project can accept new members or not.\nmodifier isOpen()\n{\n  require(prj.maxContributers>prj.noContributers, \"This project is not accept new contributer\");\n  _;\n}\n\n/// This function is a pending work for future steps\nmodifier isCrowdMember()\n{\n  address _adr=msg.sender;\n\n  //require(CrowdMember.getEnrolledAddress[_adr]==true);\n  _;\n}\n\n/** @notice  This functon is planed to be exploited in the next step.\n  * @dev    It is used if the caller is the project admin or not. .\n  *\n  * @return  the address of the admin.\n  */\nfunction getAdmin()\nview\npublic\nreturns(address)\n{\n  return(prj.admin);\n}\n/** @notice  This functon is planed to be exploited in the next step.\n  * @dev    It is used to transfer the funds to the project contract\n  */\n function fundProject() public payable\n {\n   require (msg.sender.balance>= msg.value, \"The sent value is less than the sender balance\");\n   address(this).transfer(msg.value);\n\n }\n\n /** @notice  This functon is planed to be exploited in the next step.\n   * @dev     It is used to add new member to the project.\n   * @return  the address of the admin.\n   */\n function joinProject(CrowdStructure.Contribution _cont)\n  public\n  isOpen\n\n {\n     prj.staff[msg.sender]=CrowdStructure.ProjectMember ({adr:msg.sender,cont:_cont}) ;\n\n }\n // Fallback function - Called if other functions don't match call or\n    // sent ether without data\n    // Typically, called when invalid data is sent\n    // Added so ether sent to this contract is reverted if the contract fails\n    // otherwise, the sender's money is transferred to contract\nfunction () external payable {\n        revert();\n    }\n\n}\n",
  "sourcePath": "/home/fatin/MyProjects/Solidity/CrowdFun/contracts/CrowdProject.sol",
  "compiler": {
    "name": "solc",
    "version": "0.5.8+commit.23d335f2.Emscripten.clang"
  },
  "schemaVersion": "3.0.11",
  "updatedAt": "2020-02-02T16:00:15.864Z",
  "devdoc": {
    "methods": {
      "constructor": {
        "details": "Creating a new instance of contract by CrowdProjectFactory contract. All the parameters are given by the CrowdProjectFactory contract.",
        "params": {
          "_PID": ": A project Id, given by the CrowdProjectFactory.",
          "_admin": ": .A project admin address.",
          "_createdOn": ": .A project date of creation.",
          "_discription": ": A project describtion.",
          "_maxContributers": ": .A max number of project required members.",
          "_name": ": .A project name."
        }
      },
      "fundProject()": {
        "details": "It is used to transfer the funds to the project contract"
      },
      "getAdmin()": {
        "details": "It is used if the caller is the project admin or not. .",
        "return": "the address of the admin."
      },
      "joinProject(uint8)": {
        "details": "It is used to add new member to the project.",
        "return": "the address of the admin."
      }
    },
    "title": "Crowd Project: used to create a seperated contract for each crowd member want to register and collect team for it in the crowd. It is initialized and deployed by the main contract of CrowdProjectFactory"
  },
  "userdoc": {
    "methods": {
      "constructor": "This constructor for initializing the project state variable called",
      "fundProject()": {
        "notice": "This functon is planed to be exploited in the next step."
      },
      "getAdmin()": {
        "notice": "This functon is planed to be exploited in the next step."
      },
      "joinProject(uint8)": {
        "notice": "This functon is planed to be exploited in the next step."
      }
    }
  }
}