{
  "contractName": "CrowdMember",
  "abi": [
    {
      "inputs": [],
      "payable": false,
      "stateMutability": "nonpayable",
      "type": "constructor"
    },
    {
      "payable": true,
      "stateMutability": "payable",
      "type": "fallback"
    },
    {
      "anonymous": false,
      "inputs": [
        {
          "indexed": true,
          "name": "accountAddress",
          "type": "address"
        }
      ],
      "name": "LogEnrolled",
      "type": "event"
    },
    {
      "constant": true,
      "inputs": [
        {
          "name": "_address",
          "type": "address"
        }
      ],
      "name": "getEnrolledAddress",
      "outputs": [
        {
          "name": "",
          "type": "bool"
        }
      ],
      "payable": false,
      "stateMutability": "view",
      "type": "function"
    },
    {
      "constant": false,
      "inputs": [
        {
          "name": "_firstNameMember",
          "type": "string"
        },
        {
          "name": "_lastNameMember",
          "type": "string"
        },
        {
          "name": "_emailMember",
          "type": "string"
        }
      ],
      "name": "storeMember",
      "outputs": [
        {
          "name": "",
          "type": "bool"
        }
      ],
      "payable": false,
      "stateMutability": "nonpayable",
      "type": "function"
    },
    {
      "constant": true,
      "inputs": [],
      "name": "enrolled",
      "outputs": [
        {
          "name": "",
          "type": "bool"
        }
      ],
      "payable": false,
      "stateMutability": "view",
      "type": "function"
    },
    {
      "constant": true,
      "inputs": [],
      "name": "getMember",
      "outputs": [
        {
          "components": [
            {
              "name": "firstName",
              "type": "string"
            },
            {
              "name": "lastName",
              "type": "string"
            },
            {
              "name": "email",
              "type": "string"
            }
          ],
          "name": "",
          "type": "tuple"
        }
      ],
      "payable": false,
      "stateMutability": "view",
      "type": "function"
    },
    {
      "constant": true,
      "inputs": [],
      "name": "getMemeberCount",
      "outputs": [
        {
          "name": "tempCount",
          "type": "uint256"
        }
      ],
      "payable": false,
      "stateMutability": "view",
      "type": "function"
    }
  ],
  "bytecode": "0x608060405234801561001057600080fd5b5030600260006101000a81548173ffffffffffffffffffffffffffffffffffffffff021916908373ffffffffffffffffffffffffffffffffffffffff160217905550610b5f806100616000396000f3fe60806040526004361061004a5760003560e01c80630274c0941461004f5780634ef93bac1461007a578063750cba0d146100a55780639a308dcc146100e2578063ed9187fc1461010d575b600080fd5b34801561005b57600080fd5b5061006461014a565b60405161007191906109b0565b60405180910390f35b34801561008657600080fd5b5061008f61041a565b60405161009c91906109d2565b60405180910390f35b3480156100b157600080fd5b506100cc60048036036100c791908101906107e9565b610426565b6040516100d99190610975565b60405180910390f35b3480156100ee57600080fd5b506100f76105e7565b6040516101049190610975565b60405180910390f35b34801561011957600080fd5b50610134600480360361012f91908101906107c0565b61063b565b6040516101419190610975565b60405180910390f35b610152610691565b60011515600460003373ffffffffffffffffffffffffffffffffffffffff1673ffffffffffffffffffffffffffffffffffffffff16815260200190815260200160002060009054906101000a900460ff161515146101e5576040517f08c379a00000000000000000000000000000000000000000000000000000000081526004016101dc90610990565b60405180910390fd5b600360003373ffffffffffffffffffffffffffffffffffffffff1673ffffffffffffffffffffffffffffffffffffffff168152602001908152602001600020604051806060016040529081600082018054600181600116156101000203166002900480601f0160208091040260200160405190810160405280929190818152602001828054600181600116156101000203166002900480156102c85780601f1061029d576101008083540402835291602001916102c8565b820191906000526020600020905b8154815290600101906020018083116102ab57829003601f168201915b50505050508152602001600182018054600181600116156101000203166002900480601f01602080910402602001604051908101604052809291908181526020018280546001816001161561010002031660029004801561036a5780601f1061033f5761010080835404028352916020019161036a565b820191906000526020600020905b81548152906001019060200180831161034d57829003601f168201915b50505050508152602001600282018054600181600116156101000203166002900480601f01602080910402602001604051908101604052809291908181526020018280546001816001161561010002031660029004801561040c5780601f106103e15761010080835404028352916020019161040c565b820191906000526020600020905b8154815290600101906020018083116103ef57829003601f168201915b505050505081525050905090565b60008054905080905090565b6000610430610691565b84816000018190525083816020018190525082816040018190525080600360003373ffffffffffffffffffffffffffffffffffffffff1673ffffffffffffffffffffffffffffffffffffffff16815260200190815260200160002060008201518160000190805190602001906104a79291906106b2565b5060208201518160010190805190602001906104c49291906106b2565b5060408201518160020190805190602001906104e19291906106b2565b509050506001600460003373ffffffffffffffffffffffffffffffffffffffff1673ffffffffffffffffffffffffffffffffffffffff16815260200190815260200160002060006101000a81548160ff021916908315150217905550600160008082825401925050819055503373ffffffffffffffffffffffffffffffffffffffff167f990c442e6adb818b8fa7db3cf1023decd07f7b66e5306928c7ed527d974192bb60405160405180910390a2600460003373ffffffffffffffffffffffffffffffffffffffff1673ffffffffffffffffffffffffffffffffffffffff16815260200190815260200160002060009054906101000a900460ff169150509392505050565b6000600460003373ffffffffffffffffffffffffffffffffffffffff1673ffffffffffffffffffffffffffffffffffffffff16815260200190815260200160002060009054906101000a900460ff16905090565b6000600460008373ffffffffffffffffffffffffffffffffffffffff1673ffffffffffffffffffffffffffffffffffffffff16815260200190815260200160002060009054906101000a900460ff169050919050565b60405180606001604052806060815260200160608152602001606081525090565b828054600181600116156101000203166002900490600052602060002090601f016020900481019282601f106106f357805160ff1916838001178555610721565b82800160010185558215610721579182015b82811115610720578251825591602001919060010190610705565b5b50905061072e9190610732565b5090565b61075491905b80821115610750576000816000905550600101610738565b5090565b90565b60008135905061076681610b0e565b92915050565b600082601f83011261077d57600080fd5b813561079061078b82610a1a565b6109ed565b915080825260208301602083018583830111156107ac57600080fd5b6107b7838284610abb565b50505092915050565b6000602082840312156107d257600080fd5b60006107e084828501610757565b91505092915050565b6000806000606084860312156107fe57600080fd5b600084013567ffffffffffffffff81111561081857600080fd5b6108248682870161076c565b935050602084013567ffffffffffffffff81111561084157600080fd5b61084d8682870161076c565b925050604084013567ffffffffffffffff81111561086a57600080fd5b6108768682870161076c565b9150509250925092565b61088981610a85565b82525050565b600061089a82610a46565b6108a48185610a51565b93506108b4818560208601610aca565b6108bd81610afd565b840191505092915050565b60006108d5601683610a62565b91507f4d656d626572206973206e6f7420656e726f6c6c6564000000000000000000006000830152602082019050919050565b60006060830160008301518482036000860152610925828261088f565b9150506020830151848203602086015261093f828261088f565b91505060408301518482036040860152610959828261088f565b9150508091505092915050565b61096f81610ab1565b82525050565b600060208201905061098a6000830184610880565b92915050565b600060208201905081810360008301526109a9816108c8565b9050919050565b600060208201905081810360008301526109ca8184610908565b905092915050565b60006020820190506109e76000830184610966565b92915050565b6000604051905081810181811067ffffffffffffffff82111715610a1057600080fd5b8060405250919050565b600067ffffffffffffffff821115610a3157600080fd5b601f19601f8301169050602081019050919050565b600081519050919050565b600082825260208201905092915050565b600082825260208201905092915050565b6000610a7e82610a91565b9050919050565b60008115159050919050565b600073ffffffffffffffffffffffffffffffffffffffff82169050919050565b6000819050919050565b82818337600083830152505050565b60005b83811015610ae8578082015181840152602081019050610acd565b83811115610af7576000848401525b50505050565b6000601f19601f8301169050919050565b610b1781610a73565b8114610b2257600080fd5b5056fea265627a7a723058205776078d75710752861ba9d430dc73413a512c98ddb353fd61c337b19d894d596c6578706572696d656e74616cf50037",
  "source": "pragma solidity >=0.5.0 <0.6.0;\n/// @title A simulator for crowd sourcing and funding members and projects\n/// @author Fatin Alkinani\n/// @notice You can use this contract for only the most basic simulation\n/// @dev All function calls are currently implemented without side effects\npragma experimental ABIEncoderV2;\nimport \"./CrowdStructure.sol\";\n\n/** @title Crowd Member  */\n contract CrowdMember\n {\nconstructor()public\n{\n\n  deployed=address(this);\n\n}\n\n//State variables\n\nuint  membersCount ;//setting a counter of al members\n//bytes32 public txID ;\nuint   indexProjects;//unused, palnned for the next step\n\naddress private deployed ;\n////Lockups\n///_____\n// mapping address to CrowdMember\nmapping (address=>CrowdStructure.MemberData) private members;\n//Marking members  after success registeration\nmapping (address=>bool) private enrolledMembers;\n\nmapping (address=>CrowdStructure.Project)private projects ;///planned for the next step\n\n/////Lockup between member adress and his projects\nmapping (address=>address) private ownerToProjects;\n\n///Modifiers\nmodifier isEnrolled()\n{\n  require (enrolledMembers[msg.sender]==true, \"Member is not enrolled\");\n  _;\n}\n////*events*///\nevent LogEnrolled(address indexed accountAddress);\n\n//functions\n//_________\n function getEnrolledAddress(address _address) view public returns(bool)\n  {\n    return enrolledMembers[_address];\n    }\n\n  /** @notice This function called by frontend to pass the parameters and register new memebr\n    * @dev Storing  member data in enrolled and members\n    * @param _firstNameMember : First Name of the member\n    * @param _lastNameMember : Last name of the member\n    * @param _emailMember : email of the member\n    * @return a flag refered that the member enrolled succefflly.\n    */\n\nfunction storeMember(string memory _firstNameMember,string memory _lastNameMember, string memory _emailMember)\npublic\nreturns(bool)\n{\n\n\n  CrowdStructure.MemberData memory _member;\n  _member.firstName=_firstNameMember;\n  _member.lastName= _lastNameMember;\n  _member.email=_emailMember;\n////\n\n  members[msg.sender]=_member;\n\n  enrolledMembers[msg.sender]=true;\n  membersCount+=1;\n  emit LogEnrolled(msg.sender);\n\nreturn enrolledMembers[msg.sender];\n\n//  txID=keccak256(abi.encodePacked(index2,msg.sender));\n\n}\n/** @notice This function called by  user interface to get info of specific member\n  * @dev Retrieving  member data in enrolled and members lookups.\n\n  * @return Data of msg.sender .\n  */\n\n\n function  enrolled()  public view returns  (bool)\n {\nreturn (enrolledMembers[msg.sender]);\n }\n/** @notice This function called by  user interface to get info of specific member\n  * @dev Retrieving  member data from enrolled and members lookups.\n\n  * @return Data of msg.sender .\n  */\n\n\n  function  getMember()  public view isEnrolled returns  (CrowdStructure.MemberData memory )\n {\n\n   return (members[msg.sender]);\n\n }\n\n\n\n /** @notice This function called by  user interface to get info of specific member\n   * @return tempCount The counted members of the contracts .\n   */\n\n function getMemeberCount() public view returns (uint tempCount)\n {\n    tempCount=membersCount;\n    return tempCount;\n }\n\n\n\n // Fallback function - Called if other functions don't match call or\n    // sent ether without data\n    // Typically, called when invalid data is sent\n    // Added so ether sent to this contract is reverted if the contract fails\n    // otherwise, the sender's money is transferred to contract\n    function () external payable {\n        revert();\n    }\n\n}\n",
  "sourcePath": "/home/fatin/MyProjects/Solidity/CrowdFun/contracts/CrowdMember.sol",
  "compiler": {
    "name": "solc",
    "version": "0.5.8+commit.23d335f2.Emscripten.clang"
  },
  "schemaVersion": "3.0.11",
  "updatedAt": "2020-02-02T17:13:37.090Z",
  "devdoc": {
    "methods": {
      "enrolled()": {
        "details": "Retrieving  member data in enrolled and members lookups.",
        "return": "Data of msg.sender ."
      },
      "getMember()": {
        "details": "Retrieving  member data from enrolled and members lookups.",
        "return": "Data of msg.sender ."
      },
      "getMemeberCount()": {
        "return": "tempCount The counted members of the contracts ."
      },
      "storeMember(string,string,string)": {
        "details": "Storing  member data in enrolled and members",
        "params": {
          "_emailMember": ": email of the member",
          "_firstNameMember": ": First Name of the member",
          "_lastNameMember": ": Last name of the member"
        },
        "return": "a flag refered that the member enrolled succefflly."
      }
    },
    "title": "Crowd Member  "
  },
  "userdoc": {
    "methods": {
      "enrolled()": {
        "notice": "This function called by  user interface to get info of specific member"
      },
      "getMember()": {
        "notice": "This function called by  user interface to get info of specific member"
      },
      "getMemeberCount()": {
        "notice": "This function called by  user interface to get info of specific member"
      },
      "storeMember(string,string,string)": {
        "notice": "This function called by frontend to pass the parameters and register new memebr"
      }
    }
  }
}