{
  "contractName": "CrowdProjectFactory",
  "abi": [
    {
      "constant": false,
      "inputs": [],
      "name": "renounceOwnership",
      "outputs": [],
      "payable": false,
      "stateMutability": "nonpayable",
      "type": "function"
    },
    {
      "constant": true,
      "inputs": [],
      "name": "owner",
      "outputs": [
        {
          "name": "",
          "type": "address"
        }
      ],
      "payable": false,
      "stateMutability": "view",
      "type": "function"
    },
    {
      "constant": true,
      "inputs": [],
      "name": "isOwner",
      "outputs": [
        {
          "name": "",
          "type": "bool"
        }
      ],
      "payable": false,
      "stateMutability": "view",
      "type": "function"
    },
    {
      "constant": true,
      "inputs": [
        {
          "name": "",
          "type": "uint256"
        }
      ],
      "name": "ProjectsRegistry",
      "outputs": [
        {
          "name": "PID",
          "type": "uint256"
        },
        {
          "name": "admin",
          "type": "address"
        },
        {
          "name": "createdOn",
          "type": "uint256"
        },
        {
          "name": "contractAddress",
          "type": "address"
        }
      ],
      "payable": false,
      "stateMutability": "view",
      "type": "function"
    },
    {
      "constant": false,
      "inputs": [
        {
          "name": "newOwner",
          "type": "address"
        }
      ],
      "name": "transferOwnership",
      "outputs": [],
      "payable": false,
      "stateMutability": "nonpayable",
      "type": "function"
    },
    {
      "inputs": [],
      "payable": false,
      "stateMutability": "nonpayable",
      "type": "constructor"
    },
    {
      "payable": true,
      "stateMutability": "payable",
      "type": "fallback"
    },
    {
      "anonymous": false,
      "inputs": [
        {
          "indexed": false,
          "name": "PID",
          "type": "uint256"
        },
        {
          "indexed": false,
          "name": "name",
          "type": "string"
        },
        {
          "indexed": false,
          "name": "admin",
          "type": "address"
        },
        {
          "indexed": false,
          "name": "maxNumContributers",
          "type": "uint256"
        },
        {
          "indexed": false,
          "name": "disciption",
          "type": "string"
        },
        {
          "indexed": false,
          "name": "contractAddress",
          "type": "address"
        }
      ],
      "name": "ProjectCreated",
      "type": "event"
    },
    {
      "anonymous": false,
      "inputs": [
        {
          "indexed": false,
          "name": "donations",
          "type": "uint256"
        }
      ],
      "name": "DonationsWithdrawn",
      "type": "event"
    },
    {
      "anonymous": false,
      "inputs": [
        {
          "indexed": true,
          "name": "previousOwner",
          "type": "address"
        },
        {
          "indexed": true,
          "name": "newOwner",
          "type": "address"
        }
      ],
      "name": "OwnershipTransferred",
      "type": "event"
    },
    {
      "constant": false,
      "inputs": [
        {
          "name": "_name",
          "type": "string"
        },
        {
          "name": "_maxContributers",
          "type": "uint256"
        },
        {
          "name": "_discription",
          "type": "string"
        }
      ],
      "name": "createProject",
      "outputs": [
        {
          "name": "newProject",
          "type": "address"
        }
      ],
      "payable": true,
      "stateMutability": "payable",
      "type": "function"
    },
    {
      "constant": false,
      "inputs": [],
      "name": "withdrawDonations",
      "outputs": [],
      "payable": false,
      "stateMutability": "nonpayable",
      "type": "function"
    },
    {
      "constant": true,
      "inputs": [],
      "name": "getProjectsCount",
      "outputs": [
        {
          "name": "",
          "type": "uint256"
        }
      ],
      "payable": false,
      "stateMutability": "view",
      "type": "function"
    },
    {
      "constant": true,
      "inputs": [],
      "name": "getContractOperationSatus",
      "outputs": [
        {
          "name": "",
          "type": "bool"
        }
      ],
      "payable": false,
      "stateMutability": "view",
      "type": "function"
    },
    {
      "constant": false,
      "inputs": [],
      "name": "shutdown",
      "outputs": [],
      "payable": false,
      "stateMutability": "nonpayable",
      "type": "function"
    }
  ],
  "bytecode": "0x608060405234801561001057600080fd5b5061001f61010260201b60201c565b6000806101000a81548173ffffffffffffffffffffffffffffffffffffffff021916908373ffffffffffffffffffffffffffffffffffffffff1602179055506000809054906101000a900473ffffffffffffffffffffffffffffffffffffffff1673ffffffffffffffffffffffffffffffffffffffff16600073ffffffffffffffffffffffffffffffffffffffff167f8be0079c531659141344cd1fd0a4f28419497f9722a3daafe3b4186f6b6457e060405160405180910390a360006001819055506001600260006101000a81548160ff02191690831515021790555061010a565b600033905090565b611a22806101196000396000f3fe6080604052600436106200009e5760003560e01c8063ce1b088a1162000061578063ce1b088a14620003ae578063ddc9768e14620003c8578063e4a8f18b14620003fa578063f2fde38b1462000428578063fc0e74d1146200047d576200009e565b8063715018a614620000a3578063759c3dc514620000bd5780638da5cb5b14620002625780638f32d59b14620002bc578063b6b7c3d414620002ee575b600080fd5b348015620000b057600080fd5b50620000bb62000497565b005b6200022060048036036060811015620000d557600080fd5b8101908080359060200190640100000000811115620000f357600080fd5b8201836020820111156200010657600080fd5b803590602001918460018302840111640100000000831117156200012957600080fd5b91908080601f016020809104026020016040519081016040528093929190818152602001838380828437600081840152601f19601f82011690508083019250505050505050919291929080359060200190929190803590602001906401000000008111156200019757600080fd5b820183602082011115620001aa57600080fd5b80359060200191846001830284011164010000000083111715620001cd57600080fd5b91908080601f016020809104026020016040519081016040528093929190818152602001838380828437600081840152601f19601f820116905080830192505050505050509192919290505050620005d3565b604051808273ffffffffffffffffffffffffffffffffffffffff1673ffffffffffffffffffffffffffffffffffffffff16815260200191505060405180910390f35b3480156200026f57600080fd5b506200027a62000aa7565b604051808273ffffffffffffffffffffffffffffffffffffffff1673ffffffffffffffffffffffffffffffffffffffff16815260200191505060405180910390f35b348015620002c957600080fd5b50620002d462000ad0565b604051808215151515815260200191505060405180910390f35b348015620002fb57600080fd5b506200032b600480360360208110156200031457600080fd5b810190808035906020019092919050505062000b30565b604051808581526020018473ffffffffffffffffffffffffffffffffffffffff1673ffffffffffffffffffffffffffffffffffffffff1681526020018381526020018273ffffffffffffffffffffffffffffffffffffffff1673ffffffffffffffffffffffffffffffffffffffff16815260200194505050505060405180910390f35b348015620003bb57600080fd5b50620003c662000ba0565b005b348015620003d557600080fd5b50620003e062000d49565b604051808215151515815260200191505060405180910390f35b3480156200040757600080fd5b506200041262000d60565b6040518082815260200191505060405180910390f35b3480156200043557600080fd5b506200047b600480360360208110156200044e57600080fd5b81019080803573ffffffffffffffffffffffffffffffffffffffff16906020019092919050505062000d6a565b005b3480156200048a57600080fd5b506200049562000df5565b005b620004a162000ad0565b62000514576040517f08c379a00000000000000000000000000000000000000000000000000000000081526004018080602001828103825260208152602001807f4f776e61626c653a2063616c6c6572206973206e6f7420746865206f776e657281525060200191505060405180910390fd5b600073ffffffffffffffffffffffffffffffffffffffff166000809054906101000a900473ffffffffffffffffffffffffffffffffffffffff1673ffffffffffffffffffffffffffffffffffffffff167f8be0079c531659141344cd1fd0a4f28419497f9722a3daafe3b4186f6b6457e060405160405180910390a360008060006101000a81548173ffffffffffffffffffffffffffffffffffffffff021916908373ffffffffffffffffffffffffffffffffffffffff160217905550565b600060011515600260009054906101000a900460ff1615151462000643576040517f08c379a000000000000000000000000000000000000000000000000000000000815260040180806020018281038252602c815260200180620019a1602c913960400191505060405180910390fd5b60018310156200069f576040517f08c379a000000000000000000000000000000000000000000000000000000000815260040180806020018281038252602a815260200180620019cd602a913960400191505060405180910390fd5b600180600082825401925050819055506001543385428686604051620006c59062000fec565b808781526020018673ffffffffffffffffffffffffffffffffffffffff1673ffffffffffffffffffffffffffffffffffffffff1681526020018060200185815260200184815260200180602001838103835287818151815260200191508051906020019080838360005b838110156200074c5780820151818401526020810190506200072f565b50505050905090810190601f1680156200077a5780820380516001836020036101000a031916815260200191505b50838103825284818151815260200191508051906020019080838360005b83811015620007b557808201518184015260208101905062000798565b50505050905090810190601f168015620007e35780820380516001836020036101000a031916815260200191505b5098505050505050505050604051809103906000f0801580156200080b573d6000803e3d6000fd5b509050604051806080016040528060015481526020013373ffffffffffffffffffffffffffffffffffffffff1681526020014281526020018273ffffffffffffffffffffffffffffffffffffffff168152506003600060015481526020019081526020016000206000820151816000015560208201518160010160006101000a81548173ffffffffffffffffffffffffffffffffffffffff021916908373ffffffffffffffffffffffffffffffffffffffff1602179055506040820151816002015560608201518160030160006101000a81548173ffffffffffffffffffffffffffffffffffffffff021916908373ffffffffffffffffffffffffffffffffffffffff1602179055509050507fbf427482613e27e5566354e59a495bcd900ad88024e10be1c88084d17721eba8600154853386868660405180878152602001806020018673ffffffffffffffffffffffffffffffffffffffff1673ffffffffffffffffffffffffffffffffffffffff168152602001858152602001806020018473ffffffffffffffffffffffffffffffffffffffff1673ffffffffffffffffffffffffffffffffffffffff168152602001838103835288818151815260200191508051906020019080838360005b83811015620009f6578082015181840152602081019050620009d9565b50505050905090810190601f16801562000a245780820380516001836020036101000a031916815260200191505b50838103825285818151815260200191508051906020019080838360005b8381101562000a5f57808201518184015260208101905062000a42565b50505050905090810190601f16801562000a8d5780820380516001836020036101000a031916815260200191505b509850505050505050505060405180910390a19392505050565b60008060009054906101000a900473ffffffffffffffffffffffffffffffffffffffff16905090565b60008060009054906101000a900473ffffffffffffffffffffffffffffffffffffffff1673ffffffffffffffffffffffffffffffffffffffff1662000b1462000e9e565b73ffffffffffffffffffffffffffffffffffffffff1614905090565b60036020528060005260406000206000915090508060000154908060010160009054906101000a900473ffffffffffffffffffffffffffffffffffffffff16908060020154908060030160009054906101000a900473ffffffffffffffffffffffffffffffffffffffff16905084565b62000baa62000ad0565b62000c1d576040517f08c379a00000000000000000000000000000000000000000000000000000000081526004018080602001828103825260208152602001807f4f776e61626c653a2063616c6c6572206973206e6f7420746865206f776e657281525060200191505060405180910390fd5b60003073ffffffffffffffffffffffffffffffffffffffff16311162000cab576040517f08c379a00000000000000000000000000000000000000000000000000000000081526004018080602001828103825260188152602001807f4e6f20646f6e6174696f6e7320746f207769746864726177000000000000000081525060200191505060405180910390fd5b60003073ffffffffffffffffffffffffffffffffffffffff163190503373ffffffffffffffffffffffffffffffffffffffff166108fc829081150290604051600060405180830381858888f1935050505015801562000d0e573d6000803e3d6000fd5b507f493bd3b494eae7075c1a33fc0db02aacfb1d99fbc8a463eb9c94726cb147efee816040518082815260200191505060405180910390a150565b6000600260009054906101000a900460ff16905090565b6000600154905090565b62000d7462000ad0565b62000de7576040517f08c379a00000000000000000000000000000000000000000000000000000000081526004018080602001828103825260208152602001807f4f776e61626c653a2063616c6c6572206973206e6f7420746865206f776e657281525060200191505060405180910390fd5b62000df28162000ea6565b50565b62000dff62000ad0565b62000e72576040517f08c379a00000000000000000000000000000000000000000000000000000000081526004018080602001828103825260208152602001807f4f776e61626c653a2063616c6c6572206973206e6f7420746865206f776e657281525060200191505060405180910390fd5b600260009054906101000a900460ff1615600260006101000a81548160ff021916908315150217905550565b600033905090565b600073ffffffffffffffffffffffffffffffffffffffff168173ffffffffffffffffffffffffffffffffffffffff16141562000f2e576040517f08c379a00000000000000000000000000000000000000000000000000000000081526004018080602001828103825260268152602001806200197b6026913960400191505060405180910390fd5b8073ffffffffffffffffffffffffffffffffffffffff166000809054906101000a900473ffffffffffffffffffffffffffffffffffffffff1673ffffffffffffffffffffffffffffffffffffffff167f8be0079c531659141344cd1fd0a4f28419497f9722a3daafe3b4186f6b6457e060405160405180910390a3806000806101000a81548173ffffffffffffffffffffffffffffffffffffffff021916908373ffffffffffffffffffffffffffffffffffffffff16021790555050565b6109808062000ffb8339019056fe60806040523480156200001157600080fd5b506040516200098038038062000980833981018060405262000037919081019062000304565b85600080018190555084600060010160006101000a81548173ffffffffffffffffffffffffffffffffffffffff021916908373ffffffffffffffffffffffffffffffffffffffff16021790555083600060030190805190602001906200009f929190620001cb565b508060006002019080519060200190620000bb929190620001cb565b5081600060040181905550600160006005018190555060405180604001604052803373ffffffffffffffffffffffffffffffffffffffff168152602001600160038111156200010657fe5b815250600060060160003373ffffffffffffffffffffffffffffffffffffffff1673ffffffffffffffffffffffffffffffffffffffff16815260200190815260200160002060008201518160000160006101000a81548173ffffffffffffffffffffffffffffffffffffffff021916908373ffffffffffffffffffffffffffffffffffffffff16021790555060208201518160000160146101000a81548160ff02191690836003811115620001b757fe5b0217905550905050505050505050620004cf565b828054600181600116156101000203166002900490600052602060002090601f016020900481019282601f106200020e57805160ff19168380011785556200023f565b828001600101855582156200023f579182015b828111156200023e57825182559160200191906001019062000221565b5b5090506200024e919062000252565b5090565b6200027791905b808211156200027357600081600090555060010162000259565b5090565b90565b6000815190506200028b816200049b565b92915050565b600082601f830112620002a357600080fd5b8151620002ba620002b482620003fa565b620003cc565b91508082526020830160208301858383011115620002d757600080fd5b620002e483828462000465565b50505092915050565b600081519050620002fe81620004b5565b92915050565b60008060008060008060c087890312156200031e57600080fd5b60006200032e89828a01620002ed565b96505060206200034189828a016200027a565b955050604087015167ffffffffffffffff8111156200035f57600080fd5b6200036d89828a0162000291565b94505060606200038089828a01620002ed565b93505060806200039389828a01620002ed565b92505060a087015167ffffffffffffffff811115620003b157600080fd5b620003bf89828a0162000291565b9150509295509295509295565b6000604051905081810181811067ffffffffffffffff82111715620003f057600080fd5b8060405250919050565b600067ffffffffffffffff8211156200041257600080fd5b601f19601f8301169050602081019050919050565b600062000434826200043b565b9050919050565b600073ffffffffffffffffffffffffffffffffffffffff82169050919050565b6000819050919050565b60005b838110156200048557808201518184015260208101905062000468565b8381111562000495576000848401525b50505050565b620004a68162000427565b8114620004b257600080fd5b50565b620004c0816200045b565b8114620004cc57600080fd5b50565b6104a180620004df6000396000f3fe6080604052600436106100345760003560e01c80636e9960c3146100395780638788862514610064578063d63dc6611461008d575b600080fd5b34801561004557600080fd5b5061004e610097565b60405161005b91906103b9565b60405180910390f35b34801561007057600080fd5b5061008b600480360361008691908101906102b5565b6100c3565b005b6100956101fd565b005b60008060010160009054906101000a900473ffffffffffffffffffffffffffffffffffffffff16905090565b6000600501546000600401541161010f576040517f08c379a0000000000000000000000000000000000000000000000000000000008152600401610106906103d4565b60405180910390fd5b60405180604001604052803373ffffffffffffffffffffffffffffffffffffffff16815260200182600381111561014257fe5b815250600060060160003373ffffffffffffffffffffffffffffffffffffffff1673ffffffffffffffffffffffffffffffffffffffff16815260200190815260200160002060008201518160000160006101000a81548173ffffffffffffffffffffffffffffffffffffffff021916908373ffffffffffffffffffffffffffffffffffffffff16021790555060208201518160000160146101000a81548160ff021916908360038111156101f257fe5b021790555090505050565b343373ffffffffffffffffffffffffffffffffffffffff16311015610257576040517f08c379a000000000000000000000000000000000000000000000000000000000815260040161024e906103f4565b60405180910390fd5b3073ffffffffffffffffffffffffffffffffffffffff166108fc349081150290604051600060405180830381858888f1935050505015801561029d573d6000803e3d6000fd5b50565b6000813590506102af81610457565b92915050565b6000602082840312156102c757600080fd5b60006102d5848285016102a0565b91505092915050565b6102e781610425565b82525050565b60006102fa602a83610414565b91507f546869732070726f6a656374206973206e6f7420616363657074206e6577206360008301527f6f6e7472696275746572000000000000000000000000000000000000000000006020830152604082019050919050565b6000610360602e83610414565b91507f5468652073656e742076616c7565206973206c657373207468616e207468652060008301527f73656e6465722062616c616e63650000000000000000000000000000000000006020830152604082019050919050565b60006020820190506103ce60008301846102de565b92915050565b600060208201905081810360008301526103ed816102ed565b9050919050565b6000602082019050818103600083015261040d81610353565b9050919050565b600082825260208201905092915050565b600061043082610437565b9050919050565b600073ffffffffffffffffffffffffffffffffffffffff82169050919050565b6004811061046457600080fd5b5056fea265627a7a7230582079357acc92c7d296e7af4fd490f25fe2a4c70553460e01f8b44a1ed998dc5c5c6c6578706572696d656e74616cf500374f776e61626c653a206e6577206f776e657220697320746865207a65726f20616464726573735468697320636f6e747261637420686173206265656e2073746f7070656420627920746865206f776e65722e4d617820636f6e74726962757465727320636f756c64206e6f74206265207a65726f206f72206c657373a165627a7a72305820273e7e6e5a106ac6f525222e05c93c1687ce9f0f58ddcedcd2f031e0ad76a1460029",
  "source": "pragma solidity >=0.5.0 <0.6.0;\n/// @title A simulator for crowd sourcing and funding project factory\n/// @author Fatin Alkinani\n/// @notice You can use this contract for only the most basic simulation\n/// @dev All function calls are currently implemented without side effects\nimport './CrowdProject.sol';\nimport '../node_modules/@openzeppelin/contracts/math/SafeMath.sol';\nimport '../node_modules/@openzeppelin/contracts/ownership/Ownable.sol';\n\ncontract CrowdProjectFactory is Ownable {\n\n    using SafeMath for uint256;\n\n/// State Variables\n////_________________\n//// A state variable of for creating an indexed of the new created project\n    uint256 private indexProject;\n////A state variable to define the status of the contract: opetrated or not\n     bool private operational;\n//////Srtuctures\n/////___________\n\n/// A structure is used to define the project basic info that could be retrieved publicly\n    struct ProjectBirthCertificate {\n      uint256 PID;\n      address admin;\n      uint256 createdOn;\n      CrowdProject contractAddress;\n    }\n    ///Lockups\n    ///_______\n    //// A mapping pointer to let each project id refer to the ProjectBirthCertificate\n    mapping (uint256 => ProjectBirthCertificate) public ProjectsRegistry;\n\n///Events\n///___________\n/** @notice This  event triggered when new project created\n\n  */\n    event ProjectCreated(uint256 PID, string name, address admin,uint maxNumContributers,string disciption, CrowdProject contractAddress);\n\n/// an events will trigger when a donation of this contract withdrawn by the owner\n    event DonationsWithdrawn(uint256 donations);\n\n///Modifiers\n///__________\n/////isOperational is for checking the oprational state of this contract\n    modifier isOperational() {\n        require(operational == true, \"This contract has been stopped by the owner.\");\n        _;\n    }\n\n///functions\n///_____________\n    /** @notice This constructor for initializing state variables of this contract\n\n      */\n    constructor ()\n    public\n    {\n      indexProject=0;\n      operational=true;\n    }\n    /** @notice Create Project\n      * @dev Used for creating an independednt contract address for each project.\n      * @param _name : .A project name.\n      * @param _maxContributers s: .A max number of project required members.\n      * @param _discription : A project describtion.\n      */\n\n    function createProject(string memory _name,  uint _maxContributers, string memory _discription )\n        public\n        payable\n        isOperational() //isMember\n       returns (CrowdProject newProject)\n      {\n        require (_maxContributers>=1, \"Max contributers could not be zero or less\");\n        indexProject +=1;\n        newProject = new CrowdProject( indexProject,msg.sender, _name, block.timestamp, _maxContributers, _discription);\n        ProjectsRegistry[indexProject] = ProjectBirthCertificate(indexProject, msg.sender, block.timestamp, newProject);\n        emit ProjectCreated(indexProject, _name, msg.sender, _maxContributers,_discription, newProject);\n    }\n    /** @notice This function called by frontend and by only owner of the contract\n      * @dev Transfering all the money of the contract to its owneer.\n\n      */\n\n    function withdrawDonations()\n        public\n        onlyOwner()\n    {\n        require(address(this).balance > 0, \"No donations to withdraw\");\n        uint256 donations = address(this).balance;\n        msg.sender.transfer(donations);\n        emit DonationsWithdrawn(donations);\n    }\n    /** @notice This function called by frontend.\n\n      * @return the number of the registered projects.\n      */\n    function getProjectsCount() view\n    public\n\n    returns (uint)\n    {\n    return (indexProject);\n    }\n    /** @notice This function called by other functions\n      * @dev It used to check the operational status of this contract\n      * @return a flag refered that the operation status of this contract.\n      */\n    function getContractOperationSatus() view\n    public\n\n    returns (bool)\n    {\n    return (operational);\n    }\n    /** @notice This function called by only the owner\n      * @dev It used to stop operations of this contact.\n      */\n    function shutdown()\n        public\n        onlyOwner()\n    {\n        operational = !operational;\n    }\n\n    // Fallback function - Called if other functions don't match call or\n       // sent ether without data\n       // Typically, called when invalid data is sent\n       // Added so ether sent to this contract is reverted if the contract fails\n       // otherwise, the sender's money is transferred to contract\n       function () external payable {\n           revert();\n       }\n\n}\n",
  "sourcePath": "/home/fatin/MyProjects/Solidity/CrowdFun/contracts/CrowdProjectFactory.sol",
  "compiler": {
    "name": "solc",
    "version": "0.5.8+commit.23d335f2.Emscripten.clang"
  },
  "schemaVersion": "3.0.11",
  "updatedAt": "2020-02-02T17:13:37.781Z",
  "devdoc": {
    "methods": {
      "createProject(string,uint256,string)": {
        "details": "Used for creating an independednt contract address for each project.",
        "params": {
          "_discription": ": A project describtion.",
          "_maxContributers": "s: .A max number of project required members.",
          "_name": ": .A project name."
        }
      },
      "getContractOperationSatus()": {
        "details": "It used to check the operational status of this contract",
        "return": "a flag refered that the operation status of this contract."
      },
      "getProjectsCount()": {
        "return": "the number of the registered projects."
      },
      "isOwner()": {
        "details": "Returns true if the caller is the current owner."
      },
      "owner()": {
        "details": "Returns the address of the current owner."
      },
      "renounceOwnership()": {
        "details": "Leaves the contract without owner. It will not be possible to call `onlyOwner` functions anymore. Can only be called by the current owner.     * NOTE: Renouncing ownership will leave the contract without an owner, thereby removing any functionality that is only available to the owner."
      },
      "shutdown()": {
        "details": "It used to stop operations of this contact."
      },
      "transferOwnership(address)": {
        "details": "Transfers ownership of the contract to a new account (`newOwner`). Can only be called by the current owner."
      },
      "withdrawDonations()": {
        "details": "Transfering all the money of the contract to its owneer."
      }
    }
  },
  "userdoc": {
    "methods": {
      "constructor": "This constructor for initializing state variables of this contract",
      "createProject(string,uint256,string)": {
        "notice": "Create Project"
      },
      "getContractOperationSatus()": {
        "notice": "This function called by other functions"
      },
      "getProjectsCount()": {
        "notice": "This function called by frontend."
      },
      "shutdown()": {
        "notice": "This function called by only the owner"
      },
      "withdrawDonations()": {
        "notice": "This function called by frontend and by only owner of the contract"
      }
    }
  }
}